{
  "contractName": "CrowdFunding",
  "abi": [
    {
      "inputs": [
        {
          "internalType": "uint256",
          "name": "_target",
          "type": "uint256"
        },
        {
          "internalType": "uint256",
          "name": "_deadline",
          "type": "uint256"
        }
      ],
      "payable": false,
      "stateMutability": "nonpayable",
      "type": "constructor"
    },
    {
      "constant": true,
      "inputs": [],
      "name": "admin",
      "outputs": [
        {
          "internalType": "address",
          "name": "",
          "type": "address"
        }
      ],
      "payable": false,
      "stateMutability": "view",
      "type": "function"
    },
    {
      "constant": true,
      "inputs": [
        {
          "internalType": "address",
          "name": "",
          "type": "address"
        }
      ],
      "name": "contributors",
      "outputs": [
        {
          "internalType": "uint256",
          "name": "",
          "type": "uint256"
        }
      ],
      "payable": false,
      "stateMutability": "view",
      "type": "function"
    },
    {
      "constant": true,
      "inputs": [],
      "name": "deadline",
      "outputs": [
        {
          "internalType": "uint256",
          "name": "",
          "type": "uint256"
        }
      ],
      "payable": false,
      "stateMutability": "view",
      "type": "function"
    },
    {
      "constant": true,
      "inputs": [],
      "name": "minimumContributions",
      "outputs": [
        {
          "internalType": "uint256",
          "name": "",
          "type": "uint256"
        }
      ],
      "payable": false,
      "stateMutability": "view",
      "type": "function"
    },
    {
      "constant": true,
      "inputs": [],
      "name": "noOfContributors",
      "outputs": [
        {
          "internalType": "uint256",
          "name": "",
          "type": "uint256"
        }
      ],
      "payable": false,
      "stateMutability": "view",
      "type": "function"
    },
    {
      "constant": true,
      "inputs": [],
      "name": "numRequests",
      "outputs": [
        {
          "internalType": "uint256",
          "name": "",
          "type": "uint256"
        }
      ],
      "payable": false,
      "stateMutability": "view",
      "type": "function"
    },
    {
      "constant": true,
      "inputs": [],
      "name": "raisedAmount",
      "outputs": [
        {
          "internalType": "uint256",
          "name": "",
          "type": "uint256"
        }
      ],
      "payable": false,
      "stateMutability": "view",
      "type": "function"
    },
    {
      "constant": true,
      "inputs": [
        {
          "internalType": "uint256",
          "name": "",
          "type": "uint256"
        }
      ],
      "name": "requests",
      "outputs": [
        {
          "internalType": "string",
          "name": "description",
          "type": "string"
        },
        {
          "internalType": "address payable",
          "name": "recipient",
          "type": "address"
        },
        {
          "internalType": "uint256",
          "name": "value",
          "type": "uint256"
        },
        {
          "internalType": "bool",
          "name": "isComplete",
          "type": "bool"
        },
        {
          "internalType": "uint256",
          "name": "noOfVoters",
          "type": "uint256"
        }
      ],
      "payable": false,
      "stateMutability": "view",
      "type": "function"
    },
    {
      "constant": true,
      "inputs": [],
      "name": "target",
      "outputs": [
        {
          "internalType": "uint256",
          "name": "",
          "type": "uint256"
        }
      ],
      "payable": false,
      "stateMutability": "view",
      "type": "function"
    },
    {
      "constant": false,
      "inputs": [],
      "name": "sendEth",
      "outputs": [],
      "payable": true,
      "stateMutability": "payable",
      "type": "function"
    },
    {
      "constant": true,
      "inputs": [],
      "name": "getContractBalance",
      "outputs": [
        {
          "internalType": "uint256",
          "name": "",
          "type": "uint256"
        }
      ],
      "payable": false,
      "stateMutability": "view",
      "type": "function"
    },
    {
      "constant": false,
      "inputs": [
        {
          "internalType": "string",
          "name": "_description",
          "type": "string"
        },
        {
          "internalType": "uint256",
          "name": "_value",
          "type": "uint256"
        },
        {
          "internalType": "address payable",
          "name": "_recipient",
          "type": "address"
        }
      ],
      "name": "createRequest",
      "outputs": [],
      "payable": false,
      "stateMutability": "nonpayable",
      "type": "function"
    },
    {
      "constant": false,
      "inputs": [
        {
          "internalType": "uint256",
          "name": "_requestNo",
          "type": "uint256"
        }
      ],
      "name": "voteRequest",
      "outputs": [],
      "payable": false,
      "stateMutability": "nonpayable",
      "type": "function"
    },
    {
      "constant": false,
      "inputs": [
        {
          "internalType": "uint256",
          "name": "_requestNo",
          "type": "uint256"
        }
      ],
      "name": "makePayment",
      "outputs": [],
      "payable": false,
      "stateMutability": "nonpayable",
      "type": "function"
    }
  ],
  "bytecode": "0x608060405234801561001057600080fd5b506040516110633803806110638339818101604052604081101561003357600080fd5b81019080805190602001909291908051906020019092919050505033600160006101000a81548173ffffffffffffffffffffffffffffffffffffffff021916908373ffffffffffffffffffffffffffffffffffffffff1602179055508160028190555060646004819055508042016003819055505050610fab806100b86000396000f3fe6080604052600436106100dd5760003560e01c806381d12c581161007f578063c59ee1dc11610059578063c59ee1dc14610465578063d4b8399214610490578063dd27f68c146104bb578063f851a440146104e6576100dd565b806381d12c58146102485780638a9cfd55146103485780639fb42b1f1461043a576100dd565b80634cb6f4a5116100bb5780634cb6f4a51461017c5780634e260f6f146101b75780635114cb52146101e25780636f9fb98a1461021d576100dd565b806306e99fef146100e25780631f6d4942146100ec57806329dcb0cf14610151575b600080fd5b6100ea61053d565b005b3480156100f857600080fd5b5061013b6004803603602081101561010f57600080fd5b81019080803573ffffffffffffffffffffffffffffffffffffffff1690602001909291905050506106e3565b6040518082815260200191505060405180910390f35b34801561015d57600080fd5b506101666106fb565b6040518082815260200191505060405180910390f35b34801561018857600080fd5b506101b56004803603602081101561019f57600080fd5b8101908080359060200190929190505050610701565b005b3480156101c357600080fd5b506101cc610906565b6040518082815260200191505060405180910390f35b3480156101ee57600080fd5b5061021b6004803603602081101561020557600080fd5b810190808035906020019092919050505061090c565b005b34801561022957600080fd5b50610232610bc5565b6040518082815260200191505060405180910390f35b34801561025457600080fd5b506102816004803603602081101561026b57600080fd5b8101908080359060200190929190505050610be4565b60405180806020018673ffffffffffffffffffffffffffffffffffffffff1673ffffffffffffffffffffffffffffffffffffffff16815260200185815260200184151515158152602001838152602001828103825287818151815260200191508051906020019080838360005b838110156103095780820151818401526020810190506102ee565b50505050905090810190601f1680156103365780820380516001836020036101000a031916815260200191505b50965050505050505060405180910390f35b34801561035457600080fd5b506104386004803603606081101561036b57600080fd5b810190808035906020019064010000000081111561038857600080fd5b82018360208201111561039a57600080fd5b803590602001918460018302840111640100000000831117156103bc57600080fd5b91908080601f016020809104026020016040519081016040528093929190818152602001838380828437600081840152601f19601f82011690508083019250505050505050919291929080359060200190929190803573ffffffffffffffffffffffffffffffffffffffff169060200190929190505050610cdf565b005b34801561044657600080fd5b5061044f610e42565b6040518082815260200191505060405180910390f35b34801561047157600080fd5b5061047a610e48565b6040518082815260200191505060405180910390f35b34801561049c57600080fd5b506104a5610e4e565b6040518082815260200191505060405180910390f35b3480156104c757600080fd5b506104d0610e54565b6040518082815260200191505060405180910390f35b3480156104f257600080fd5b506104fb610e5a565b604051808273ffffffffffffffffffffffffffffffffffffffff1673ffffffffffffffffffffffffffffffffffffffff16815260200191505060405180910390f35b42600354116105b4576040517f08c379a00000000000000000000000000000000000000000000000000000000081526004018080602001828103825260138152602001807f646561646c696e6520686173207061737365640000000000000000000000000081525060200191505060405180910390fd5b346004541161062b576040517f08c379a000000000000000000000000000000000000000000000000000000000815260040180806020018281038252601f8152602001807f4d696e696d756d20636f6e747269627574696f6e206973206e6f74206d65740081525060200191505060405180910390fd5b60008060003373ffffffffffffffffffffffffffffffffffffffff1673ffffffffffffffffffffffffffffffffffffffff168152602001908152602001600020541415610685576006600081548092919060010191905055505b346000803373ffffffffffffffffffffffffffffffffffffffff1673ffffffffffffffffffffffffffffffffffffffff1681526020019081526020016000206000828254019250508190555034600560008282540192505081905550565b60006020528060005260406000206000915090505481565b60035481565b60008060003373ffffffffffffffffffffffffffffffffffffffff1673ffffffffffffffffffffffffffffffffffffffff16815260200190815260200160002054116107b5576040517f08c379a00000000000000000000000000000000000000000000000000000000081526004018080602001828103825260198152602001807f796f75206d757374206265206120636f6e7472696275746f720000000000000081525060200191505060405180910390fd5b6000600760008381526020019081526020016000209050600015158160050160003373ffffffffffffffffffffffffffffffffffffffff1673ffffffffffffffffffffffffffffffffffffffff16815260200190815260200160002060009054906101000a900460ff16151514610894576040517f08c379a00000000000000000000000000000000000000000000000000000000081526004018080602001828103825260168152602001807f596f752063616e206f6e6c7920766f7465206f6e63650000000000000000000081525060200191505060405180910390fd5b60018160050160003373ffffffffffffffffffffffffffffffffffffffff1673ffffffffffffffffffffffffffffffffffffffff16815260200190815260200160002060006101000a81548160ff02191690831515021790555080600401600081548092919060010191905055505050565b60065481565b600160009054906101000a900473ffffffffffffffffffffffffffffffffffffffff1673ffffffffffffffffffffffffffffffffffffffff163373ffffffffffffffffffffffffffffffffffffffff16146109b2576040517f08c379a0000000000000000000000000000000000000000000000000000000008152600401808060200182810382526026815260200180610f266026913960400191505060405180910390fd5b60025460055411610a2b576040517f08c379a00000000000000000000000000000000000000000000000000000000081526004018080602001828103825260158152602001807f20416d6f756e74206973206e6f7420726169736564000000000000000000000081525060200191505060405180910390fd5b6000600760008381526020019081526020016000209050600015158160030160009054906101000a900460ff16151514610acd576040517f08c379a000000000000000000000000000000000000000000000000000000000815260040180806020018281038252601f8152602001807f74686973207265717565737420686173206265656e20636f6d706c657465640081525060200191505060405180910390fd5b8060040154600260065481610ade57fe5b0410610b35576040517f08c379a000000000000000000000000000000000000000000000000000000000815260040180806020018281038252602b815260200180610f4c602b913960400191505060405180910390fd5b8060010160009054906101000a900473ffffffffffffffffffffffffffffffffffffffff1673ffffffffffffffffffffffffffffffffffffffff166108fc82600201549081150290604051600060405180830381858888f19350505050158015610ba3573d6000803e3d6000fd5b5060018160030160006101000a81548160ff0219169083151502179055505050565b60003073ffffffffffffffffffffffffffffffffffffffff1631905090565b6007602052806000526040600020600091509050806000018054600181600116156101000203166002900480601f016020809104026020016040519081016040528092919081815260200182805460018160011615610100020316600290048015610c905780601f10610c6557610100808354040283529160200191610c90565b820191906000526020600020905b815481529060010190602001808311610c7357829003601f168201915b5050505050908060010160009054906101000a900473ffffffffffffffffffffffffffffffffffffffff16908060020154908060030160009054906101000a900460ff16908060040154905085565b600160009054906101000a900473ffffffffffffffffffffffffffffffffffffffff1673ffffffffffffffffffffffffffffffffffffffff163373ffffffffffffffffffffffffffffffffffffffff1614610d85576040517f08c379a0000000000000000000000000000000000000000000000000000000008152600401808060200182810382526026815260200180610f266026913960400191505060405180910390fd5b6000600760006008548152602001908152602001600020905060086000815480929190600101919050555083816000019080519060200190610dc8929190610e80565b50828160020181905550818160010160006101000a81548173ffffffffffffffffffffffffffffffffffffffff021916908373ffffffffffffffffffffffffffffffffffffffff1602179055506000816004018190555060008160030160006101000a81548160ff02191690831515021790555050505050565b60085481565b60055481565b60025481565b60045481565b600160009054906101000a900473ffffffffffffffffffffffffffffffffffffffff1681565b828054600181600116156101000203166002900490600052602060002090601f016020900481019282601f10610ec157805160ff1916838001178555610eef565b82800160010185558215610eef579182015b82811115610eee578251825591602001919060010190610ed3565b5b509050610efc9190610f00565b5090565b610f2291905b80821115610f1e576000816000905550600101610f06565b5090565b9056fe4f6e6c792061646d696e20697320616c6c6f77656420746f2073656e6420726571756573747348616c66206f6620766f746572732061726520726571756972656420746f206d616b65207061796d656e74a265627a7a72315820da6a37765311174a7fdf74f790b94c58e9b6a0a32fcda7bc84d06086d459cbf664736f6c63430005100032",
  "source": "pragma solidity ^0.5.0;\r\n\r\ncontract CrowdFunding{\r\n    mapping(address => uint) public contributors;\r\n    address public admin;\r\n    uint public target;\r\n    uint public deadline;\r\n    uint public minimumContributions;\r\n    uint public raisedAmount;\r\n    uint public noOfContributors;\r\n    \r\n    constructor(uint _target,uint _deadline) public {\r\n        admin = msg.sender;\r\n        target = _target;\r\n        minimumContributions = 100 wei;\r\n        deadline = block.timestamp + _deadline;\r\n    }\r\n    \r\n    struct Request{\r\n        string description;\r\n        address payable recipient;\r\n        uint value;\r\n        bool isComplete;\r\n        uint noOfVoters;\r\n        mapping(address => bool) voters;\r\n    }\r\n    \r\n    mapping(uint => Request) public requests; \r\n    uint public numRequests;\r\n    \r\n    function sendEth() public payable{\r\n        require(deadline > block.timestamp, \"deadline has passed\");\r\n        require(minimumContributions > msg.value , \"Minimum contribution is not met\");\r\n        if(contributors[msg.sender] == 0){\r\n            noOfContributors++;\r\n        }\r\n        contributors[msg.sender] += msg.value;\r\n        raisedAmount += msg.value;\r\n    }\r\n    \r\n    function getContractBalance() public view returns(uint){\r\n        return address(this).balance;\r\n    }\r\n    \r\n    modifier onlyAdmin(){\r\n        require (msg.sender == admin,\"Only admin is allowed to send requests\");\r\n        _;\r\n    }\r\n    \r\n    function createRequest(string memory _description, uint _value,address payable _recipient) public onlyAdmin{\r\n        Request storage newRequest = requests[numRequests];\r\n        numRequests++;\r\n        newRequest.description = _description;\r\n        newRequest.value = _value;\r\n        newRequest.recipient = _recipient;\r\n        newRequest.noOfVoters = 0;\r\n        newRequest.isComplete = false;\r\n    }\r\n    \r\n    function voteRequest(uint _requestNo) public {\r\n        require(contributors[msg.sender]> 0, \"you must be a contributor\");\r\n        Request storage thisRequest = requests[_requestNo];\r\n        require(thisRequest.voters[msg.sender] == false,\"You can only vote once\");\r\n        thisRequest.voters[msg.sender] = true;\r\n        thisRequest.noOfVoters++;\r\n        \r\n    }\r\n    \r\n    function makePayment(uint _requestNo) public onlyAdmin{\r\n        require(raisedAmount > target, \" Amount is not raised\");\r\n        Request storage thisRequest = requests[_requestNo];\r\n        require(thisRequest.isComplete == false, \"this request has been completed\");\r\n        require(noOfContributors/2 < thisRequest.noOfVoters, \"Half of voters are required to make payment\");\r\n        thisRequest.recipient.transfer(thisRequest.value);\r\n        thisRequest.isComplete = true;\r\n    }\r\n    \r\n}",
  "sourcePath": "C:\\Users\\prakhar\\OneDrive\\Desktop\\Block-chain\\Crowd Funding Project\\src\\contracts\\CrowdFunding.sol",
  "compiler": {
    "name": "solc",
    "version": "0.5.16+commit.9c3226ce.Emscripten.clang"
  },
  "schemaVersion": "3.4.3",
  "updatedAt": "2021-10-16T13:46:47.613Z",
  "networkType": "ethereum",
  "devdoc": {
    "methods": {}
  },
  "userdoc": {
    "methods": {}
  }
}