{
  "contractName": "CrowdFunding",
  "abi": [
    {
      "inputs": [
        {
          "internalType": "uint256",
          "name": "_target",
          "type": "uint256"
        },
        {
          "internalType": "uint256",
          "name": "_deadline",
          "type": "uint256"
        }
      ],
      "payable": false,
      "stateMutability": "nonpayable",
      "type": "constructor"
    },
    {
      "constant": true,
      "inputs": [],
      "name": "admin",
      "outputs": [
        {
          "internalType": "address",
          "name": "",
          "type": "address"
        }
      ],
      "payable": false,
      "stateMutability": "view",
      "type": "function"
    },
    {
      "constant": true,
      "inputs": [
        {
          "internalType": "address",
          "name": "",
          "type": "address"
        }
      ],
      "name": "contributors",
      "outputs": [
        {
          "internalType": "uint256",
          "name": "",
          "type": "uint256"
        }
      ],
      "payable": false,
      "stateMutability": "view",
      "type": "function"
    },
    {
      "constant": true,
      "inputs": [],
      "name": "deadline",
      "outputs": [
        {
          "internalType": "uint256",
          "name": "",
          "type": "uint256"
        }
      ],
      "payable": false,
      "stateMutability": "view",
      "type": "function"
    },
    {
      "constant": true,
      "inputs": [],
      "name": "minimumContributions",
      "outputs": [
        {
          "internalType": "uint256",
          "name": "",
          "type": "uint256"
        }
      ],
      "payable": false,
      "stateMutability": "view",
      "type": "function"
    },
    {
      "constant": true,
      "inputs": [],
      "name": "noOfContributors",
      "outputs": [
        {
          "internalType": "uint256",
          "name": "",
          "type": "uint256"
        }
      ],
      "payable": false,
      "stateMutability": "view",
      "type": "function"
    },
    {
      "constant": true,
      "inputs": [],
      "name": "noOfRequests",
      "outputs": [
        {
          "internalType": "uint256",
          "name": "",
          "type": "uint256"
        }
      ],
      "payable": false,
      "stateMutability": "view",
      "type": "function"
    },
    {
      "constant": true,
      "inputs": [],
      "name": "numRequests",
      "outputs": [
        {
          "internalType": "uint256",
          "name": "",
          "type": "uint256"
        }
      ],
      "payable": false,
      "stateMutability": "view",
      "type": "function"
    },
    {
      "constant": true,
      "inputs": [],
      "name": "raisedAmount",
      "outputs": [
        {
          "internalType": "uint256",
          "name": "",
          "type": "uint256"
        }
      ],
      "payable": false,
      "stateMutability": "view",
      "type": "function"
    },
    {
      "constant": true,
      "inputs": [
        {
          "internalType": "uint256",
          "name": "",
          "type": "uint256"
        }
      ],
      "name": "requests",
      "outputs": [
        {
          "internalType": "string",
          "name": "description",
          "type": "string"
        },
        {
          "internalType": "address payable",
          "name": "recipient",
          "type": "address"
        },
        {
          "internalType": "uint256",
          "name": "value",
          "type": "uint256"
        },
        {
          "internalType": "bool",
          "name": "isComplete",
          "type": "bool"
        },
        {
          "internalType": "uint256",
          "name": "noOfVoters",
          "type": "uint256"
        }
      ],
      "payable": false,
      "stateMutability": "view",
      "type": "function"
    },
    {
      "constant": true,
      "inputs": [],
      "name": "target",
      "outputs": [
        {
          "internalType": "uint256",
          "name": "",
          "type": "uint256"
        }
      ],
      "payable": false,
      "stateMutability": "view",
      "type": "function"
    },
    {
      "constant": false,
      "inputs": [],
      "name": "sendEth",
      "outputs": [],
      "payable": true,
      "stateMutability": "payable",
      "type": "function"
    },
    {
      "constant": true,
      "inputs": [],
      "name": "getContractBalance",
      "outputs": [
        {
          "internalType": "uint256",
          "name": "",
          "type": "uint256"
        }
      ],
      "payable": false,
      "stateMutability": "view",
      "type": "function"
    },
    {
      "constant": false,
      "inputs": [
        {
          "internalType": "string",
          "name": "_description",
          "type": "string"
        },
        {
          "internalType": "uint256",
          "name": "_value",
          "type": "uint256"
        },
        {
          "internalType": "address payable",
          "name": "_recipient",
          "type": "address"
        }
      ],
      "name": "createRequest",
      "outputs": [],
      "payable": false,
      "stateMutability": "nonpayable",
      "type": "function"
    },
    {
      "constant": false,
      "inputs": [
        {
          "internalType": "uint256",
          "name": "_requestNo",
          "type": "uint256"
        }
      ],
      "name": "voteRequest",
      "outputs": [],
      "payable": false,
      "stateMutability": "nonpayable",
      "type": "function"
    },
    {
      "constant": false,
      "inputs": [
        {
          "internalType": "uint256",
          "name": "_requestNo",
          "type": "uint256"
        }
      ],
      "name": "makePayment",
      "outputs": [],
      "payable": false,
      "stateMutability": "nonpayable",
      "type": "function"
    }
  ],
  "bytecode": "0x6080604052600060075534801561001557600080fd5b506040516110b63803806110b68339818101604052604081101561003857600080fd5b81019080805190602001909291908051906020019092919050505033600160006101000a81548173ffffffffffffffffffffffffffffffffffffffff021916908373ffffffffffffffffffffffffffffffffffffffff1602179055508160028190555060646004819055508042016003819055505050610ff9806100bd6000396000f3fe6080604052600436106100e85760003560e01c806381d12c581161008a578063c59ee1dc11610059578063c59ee1dc1461049b578063d4b83992146104c6578063dd27f68c146104f1578063f851a4401461051c576100e8565b806381d12c58146102535780638a9cfd55146103535780639fb42b1f14610445578063c1f11b4c14610470576100e8565b80634cb6f4a5116100c65780634cb6f4a5146101875780634e260f6f146101c25780635114cb52146101ed5780636f9fb98a14610228576100e8565b806306e99fef146100ed5780631f6d4942146100f757806329dcb0cf1461015c575b600080fd5b6100f5610573565b005b34801561010357600080fd5b506101466004803603602081101561011a57600080fd5b81019080803573ffffffffffffffffffffffffffffffffffffffff169060200190929190505050610719565b6040518082815260200191505060405180910390f35b34801561016857600080fd5b50610171610731565b6040518082815260200191505060405180910390f35b34801561019357600080fd5b506101c0600480360360208110156101aa57600080fd5b8101908080359060200190929190505050610737565b005b3480156101ce57600080fd5b506101d761093c565b6040518082815260200191505060405180910390f35b3480156101f957600080fd5b506102266004803603602081101561021057600080fd5b8101908080359060200190929190505050610942565b005b34801561023457600080fd5b5061023d610bfb565b6040518082815260200191505060405180910390f35b34801561025f57600080fd5b5061028c6004803603602081101561027657600080fd5b8101908080359060200190929190505050610c1a565b60405180806020018673ffffffffffffffffffffffffffffffffffffffff1673ffffffffffffffffffffffffffffffffffffffff16815260200185815260200184151515158152602001838152602001828103825287818151815260200191508051906020019080838360005b838110156103145780820151818401526020810190506102f9565b50505050905090810190601f1680156103415780820380516001836020036101000a031916815260200191505b50965050505050505060405180910390f35b34801561035f57600080fd5b506104436004803603606081101561037657600080fd5b810190808035906020019064010000000081111561039357600080fd5b8201836020820111156103a557600080fd5b803590602001918460018302840111640100000000831117156103c757600080fd5b91908080601f016020809104026020016040519081016040528093929190818152602001838380828437600081840152601f19601f82011690508083019250505050505050919291929080359060200190929190803573ffffffffffffffffffffffffffffffffffffffff169060200190929190505050610d15565b005b34801561045157600080fd5b5061045a610e8a565b6040518082815260200191505060405180910390f35b34801561047c57600080fd5b50610485610e90565b6040518082815260200191505060405180910390f35b3480156104a757600080fd5b506104b0610e96565b6040518082815260200191505060405180910390f35b3480156104d257600080fd5b506104db610e9c565b6040518082815260200191505060405180910390f35b3480156104fd57600080fd5b50610506610ea2565b6040518082815260200191505060405180910390f35b34801561052857600080fd5b50610531610ea8565b604051808273ffffffffffffffffffffffffffffffffffffffff1673ffffffffffffffffffffffffffffffffffffffff16815260200191505060405180910390f35b42600354116105ea576040517f08c379a00000000000000000000000000000000000000000000000000000000081526004018080602001828103825260138152602001807f646561646c696e6520686173207061737365640000000000000000000000000081525060200191505060405180910390fd5b3460045411610661576040517f08c379a000000000000000000000000000000000000000000000000000000000815260040180806020018281038252601f8152602001807f4d696e696d756d20636f6e747269627574696f6e206973206e6f74206d65740081525060200191505060405180910390fd5b60008060003373ffffffffffffffffffffffffffffffffffffffff1673ffffffffffffffffffffffffffffffffffffffff1681526020019081526020016000205414156106bb576006600081548092919060010191905055505b346000803373ffffffffffffffffffffffffffffffffffffffff1673ffffffffffffffffffffffffffffffffffffffff1681526020019081526020016000206000828254019250508190555034600560008282540192505081905550565b60006020528060005260406000206000915090505481565b60035481565b60008060003373ffffffffffffffffffffffffffffffffffffffff1673ffffffffffffffffffffffffffffffffffffffff16815260200190815260200160002054116107eb576040517f08c379a00000000000000000000000000000000000000000000000000000000081526004018080602001828103825260198152602001807f796f75206d757374206265206120636f6e7472696275746f720000000000000081525060200191505060405180910390fd5b6000600860008381526020019081526020016000209050600015158160050160003373ffffffffffffffffffffffffffffffffffffffff1673ffffffffffffffffffffffffffffffffffffffff16815260200190815260200160002060009054906101000a900460ff161515146108ca576040517f08c379a00000000000000000000000000000000000000000000000000000000081526004018080602001828103825260168152602001807f596f752063616e206f6e6c7920766f7465206f6e63650000000000000000000081525060200191505060405180910390fd5b60018160050160003373ffffffffffffffffffffffffffffffffffffffff1673ffffffffffffffffffffffffffffffffffffffff16815260200190815260200160002060006101000a81548160ff02191690831515021790555080600401600081548092919060010191905055505050565b60065481565b600160009054906101000a900473ffffffffffffffffffffffffffffffffffffffff1673ffffffffffffffffffffffffffffffffffffffff163373ffffffffffffffffffffffffffffffffffffffff16146109e8576040517f08c379a0000000000000000000000000000000000000000000000000000000008152600401808060200182810382526026815260200180610f746026913960400191505060405180910390fd5b60025460055411610a61576040517f08c379a00000000000000000000000000000000000000000000000000000000081526004018080602001828103825260158152602001807f20416d6f756e74206973206e6f7420726169736564000000000000000000000081525060200191505060405180910390fd5b6000600860008381526020019081526020016000209050600015158160030160009054906101000a900460ff16151514610b03576040517f08c379a000000000000000000000000000000000000000000000000000000000815260040180806020018281038252601f8152602001807f74686973207265717565737420686173206265656e20636f6d706c657465640081525060200191505060405180910390fd5b8060040154600260065481610b1457fe5b0410610b6b576040517f08c379a000000000000000000000000000000000000000000000000000000000815260040180806020018281038252602b815260200180610f9a602b913960400191505060405180910390fd5b8060010160009054906101000a900473ffffffffffffffffffffffffffffffffffffffff1673ffffffffffffffffffffffffffffffffffffffff166108fc82600201549081150290604051600060405180830381858888f19350505050158015610bd9573d6000803e3d6000fd5b5060018160030160006101000a81548160ff0219169083151502179055505050565b60003073ffffffffffffffffffffffffffffffffffffffff1631905090565b6008602052806000526040600020600091509050806000018054600181600116156101000203166002900480601f016020809104026020016040519081016040528092919081815260200182805460018160011615610100020316600290048015610cc65780601f10610c9b57610100808354040283529160200191610cc6565b820191906000526020600020905b815481529060010190602001808311610ca957829003601f168201915b5050505050908060010160009054906101000a900473ffffffffffffffffffffffffffffffffffffffff16908060020154908060030160009054906101000a900460ff16908060040154905085565b600160009054906101000a900473ffffffffffffffffffffffffffffffffffffffff1673ffffffffffffffffffffffffffffffffffffffff163373ffffffffffffffffffffffffffffffffffffffff1614610dbb576040517f08c379a0000000000000000000000000000000000000000000000000000000008152600401808060200182810382526026815260200180610f746026913960400191505060405180910390fd5b6000600860006009548152602001908152602001600020905060096000815480929190600101919050555083816000019080519060200190610dfe929190610ece565b50828160020181905550818160010160006101000a81548173ffffffffffffffffffffffffffffffffffffffff021916908373ffffffffffffffffffffffffffffffffffffffff1602179055506000816004018190555060008160030160006101000a81548160ff02191690831515021790555060076000815480929190600101919050555050505050565b60095481565b60075481565b60055481565b60025481565b60045481565b600160009054906101000a900473ffffffffffffffffffffffffffffffffffffffff1681565b828054600181600116156101000203166002900490600052602060002090601f016020900481019282601f10610f0f57805160ff1916838001178555610f3d565b82800160010185558215610f3d579182015b82811115610f3c578251825591602001919060010190610f21565b5b509050610f4a9190610f4e565b5090565b610f7091905b80821115610f6c576000816000905550600101610f54565b5090565b9056fe4f6e6c792061646d696e20697320616c6c6f77656420746f2073656e6420726571756573747348616c66206f6620766f746572732061726520726571756972656420746f206d616b65207061796d656e74a265627a7a723158205a5e24eb934ebf78b2da9e82cd529a62cde83560a80069bfb5edaf7190aed12c64736f6c63430005100032",
  "source": "pragma solidity ^0.5.0;\r\n\r\ncontract CrowdFunding{\r\n    mapping(address => uint) public contributors;\r\n    address public admin;\r\n    uint public target;\r\n    uint public deadline;\r\n    uint public minimumContributions;\r\n    uint public raisedAmount;\r\n    uint public noOfContributors;\r\n    uint public noOfRequests = 0;\r\n    \r\n    constructor(uint _target,uint _deadline) public {\r\n        admin = msg.sender;\r\n        target = _target;\r\n        minimumContributions = 100 wei;\r\n        deadline = block.timestamp + _deadline;\r\n    }\r\n    \r\n    struct Request{\r\n        string description;\r\n        address payable recipient;\r\n        uint value;\r\n        bool isComplete;\r\n        uint noOfVoters;\r\n        mapping(address => bool) voters;\r\n    }\r\n    \r\n    mapping(uint => Request) public requests; \r\n    uint public numRequests;\r\n    \r\n    function sendEth() public payable{\r\n        require(deadline > block.timestamp, \"deadline has passed\");\r\n        require(minimumContributions > msg.value , \"Minimum contribution is not met\");\r\n        if(contributors[msg.sender] == 0){\r\n            noOfContributors++;\r\n        }\r\n        contributors[msg.sender] += msg.value;\r\n        raisedAmount += msg.value;\r\n    }\r\n    \r\n    function getContractBalance() public view returns(uint){\r\n        return address(this).balance;\r\n    }\r\n    \r\n    modifier onlyAdmin(){\r\n        require (msg.sender == admin,\"Only admin is allowed to send requests\");\r\n        _;\r\n    }\r\n    \r\n    function createRequest(string memory _description, uint _value,address payable _recipient) public onlyAdmin{\r\n        Request storage newRequest = requests[numRequests];\r\n        numRequests++;\r\n        newRequest.description = _description;\r\n        newRequest.value = _value;\r\n        newRequest.recipient = _recipient;\r\n        newRequest.noOfVoters = 0;\r\n        newRequest.isComplete = false;\r\n        noOfRequests++;\r\n    }\r\n    \r\n    function voteRequest(uint _requestNo) public {\r\n        require(contributors[msg.sender]> 0, \"you must be a contributor\");\r\n        Request storage thisRequest = requests[_requestNo];\r\n        require(thisRequest.voters[msg.sender] == false,\"You can only vote once\");\r\n        thisRequest.voters[msg.sender] = true;\r\n        thisRequest.noOfVoters++;\r\n        \r\n    }\r\n    \r\n    function makePayment(uint _requestNo) public onlyAdmin{\r\n        require(raisedAmount > target, \" Amount is not raised\");\r\n        Request storage thisRequest = requests[_requestNo];\r\n        require(thisRequest.isComplete == false, \"this request has been completed\");\r\n        require(noOfContributors/2 < thisRequest.noOfVoters, \"Half of voters are required to make payment\");\r\n        thisRequest.recipient.transfer(thisRequest.value);\r\n        thisRequest.isComplete = true;\r\n    }\r\n    \r\n}",
  "sourcePath": "C:\\Users\\prakhar\\OneDrive\\Desktop\\Block-chain\\Crowd Funding Project\\src\\contracts\\CrowdFunding.sol",
  "compiler": {
    "name": "solc",
    "version": "0.5.16+commit.9c3226ce.Emscripten.clang"
  },
  "schemaVersion": "3.4.3",
  "updatedAt": "2021-10-25T15:44:29.393Z",
  "networkType": "ethereum",
  "devdoc": {
    "methods": {}
  },
  "userdoc": {
    "methods": {}
  }
}